:020000020000FC
:100000000E94E50002E00F9300E00F9303E00F93DE
:100010000EE40F930E948E010F910F910F910F919B
:1000200002E00F9300E00F930E949B000F910F914D
:100030000C9418000C941A000F932F933F93009187
:1000400032000F7D24FD00620093340000912C00EB
:10005000077F25FD086000932E0000910001077FB7
:1000600026FD086000930201009100010F7E27FD2C
:1000700000610093020100910001006400930201FD
:1000800031E00E946A01009100010F7B00930201A0
:100090003F912F910F9108952F933F930F93DF93EB
:1000A000CF93DEB7CDB729850E941C0032E30E94B2
:1000B0006A0122950E941C0032E30E946A01CF91DE
:1000C000DF910F913F912F9108950F933F932F93BD
:1000D000DF93CF93DEB7CDB72985009100010F7D67
:1000E000009302012F930E944C002F91243018F4AA
:1000F00032E00E947401CF91DF912F913F910F91D7
:1001000008950F932F93DF93CF93DEB7CDB7288554
:10011000009100010062009302012F930E944C00A5
:100120002F9100912202039500932202CF91DF913B
:100130002F910F9108950F931F93DF93CF93FF9308
:10014000EF93DEB7CDB7FB85EA851191103029F02A
:100150001F930E9481001F91F8CFEF91FF91CF91E3
:10016000DF911F910F9108950F931F93DF93CF930A
:10017000DEB7CDB70885198511301CF011E00C945D
:10018000C4000F300CF00FE0109321020093220204
:10019000113019F410EC0C94CE0010E8010F0F93FD
:1001A0000E9465000F91CF91DF911F910F910895EB
:1001B0000F9301E00F930E9465000F9100270093B9
:1001C0002102009322020F9108950F932F933F93E2
:1001D00000913300006200933300009132000F7DE4
:1001E0000093340000912D00086000932D000091D1
:1001F0002C00077F00932E000091010108600093FE
:10020000010100910001077F0093020100910101AB
:10021000006100930101009100010F7E0093020133
:1002200000910101006200930101009100010F7D26
:10023000009302010091010100640093010100910B
:1002400000010F7B009302013FE00E94740135E042
:100250000E94740120E30E941C0035E00E9474019A
:1002600020E30E941C0057E03FE00E9474015A9571
:10027000D9F720E30E941C0032E30E946A0120E2C9
:100280000E941C0032E30E946A0108E20F930E9460
:1002900065000F9108E00F930E9465000F9101E047
:1002A0000F930E9465000F9132E00E94740106E0F6
:1002B0000F930E9465000F910CE00F930E94650060
:1002C0000F91002700932102009322023F912F916A
:1002D0000F9108950F933F9305E00A95F1F73A9532
:1002E000D9F73F910F9108950F931F933F93DF9399
:1002F000CF930DEF309F012D0295007FD02F002D61
:100300000295102F007F1F70C02FD12B2197F1F77E
:10031000CF91DF913F911F910F9108950F93FF931C
:10032000EF93BF93AF93DF93CF93DEB7CDB7EB855A
:10033000FC85AD85BE85059100300D93E1F7CF9129
:10034000DF91AF91BF91EF91FF910F9108954865B3
:0C0350006C6C6F2C20576F726C642100E5
:00000001FF
